S01F0000455345363830415F4170706C69636174696F6E436F64652E73726563FB
S2140080006830002091D600008DD600008DD6000086
S214008010000000000000000000000000000000005B
S2140080200000000000000000000000008DD60000E8
S21400803000000000000000008DD600008DD6000075
S2140080408DD600008DD600008DD60000BDB5000090
S21400805059B400008DD600008DD600008DD60000E5
S2140080608DD6000029E8000039E8000049E8000045
S21400807059E8000069E8000079E80000D9C300006C
S214008080E9C30000F9C300008DD600008DD60000BD
S2140080908DD6000000000000000000008DD6000015
S2140080A08DD600008DD600008DD600008DD600003F
S2140080B00000000010B5064C2378002B07D1054BB6
S2140080C0002B02D0044800E000BF0123237010BD3F
S2140080D0F401002000000000246F0100084B10B5DA
S2140080E0002B03D00749084800E000BF0748036894
S2140080F0002B00D110BD064B002BFBD09847F9E7AC
S21400810000000000F8010020246F0100246F010029
S2140081100000000010B5034B1B68002B00D09847EA
S21400812010BDC0461002002070B5441E002804D0C2
S214008130024D0120A847013CFBD270BD5DE1000066
S214008140F8B5084C80277F0567618026360566618E
S2140081506420054DA847A7616420A847A66164204F
S214008160A847F8BD004400412981000070B582B0E0
S2140081700023164A136001AC01256570A3702570B4
S21400818021001B20124EB04721001C20B0472100C2
S2140081902820B0470F4B802252055A6180221205D4
S2140081A05A610D4B1B681D4203D00B4B1B689B0787
S2140081B001D40A4B98470A4B98470122094B1A707C
S2140081C0BFF35F8F62B6002002B070BD10020020C1
S2140081D021E400000044004110E000E01DE1000042
S2140081E0418100000200002010B584B00E4B1860DC
S2140081F001AC20000D4B98472923019300236360B0
S214008200013323720133E37221000920084B98479B
S214008210002209210748084B984700210920074BF0
S214008220984704B010BDC0461002002031B50000CB
S21400823045B5000015810000EDB3000019B400003C
S21400824010B5002804D100210920044B984710BD22
S21400825000210920024B9847F9E7C04639B40000D0
S21400826019B4000030B591B0304C0E2323700023B3
S2140082706370A37001A901224A708B700A700E20E9
S2140082802B4B98472278D1090023002904D15309A3
S214008290DB0128498C4663441F211140012210004F
S2140082A08840986102AC2270002303930493C02197
S2140082B08903059123746374A274E27423752332D0
S2140082C0A354183A002108A81B4B98471B4BA362DF
S2140082D01B4BE36201235B4223631A4B63631A4B17
S2140082E0A361220019491A481A4B984700281AD148
S2140082F0174D2C682000184B98471F2318401E3B2C
S2140083008340164A13602A68D369002BFCD1236881
S214008310022213432360124B98470120114B9847C3
S214008320002011B030BD06204042FAE7600400206D
S21400833021E4000000440041FF3B010002000C0065
S21400834002000D0002000F00001BB70000100042E4
S2140083506404002089E80000F9E7000000E100E07E
S2140083604181000029810000F0B5DE4657464E46A2
S2140083704546E0B583B0032800D075E00E684D682A
S2140083800C8900226B46DA71002D27D0002C65D0B0
S214008390002E00D177E00023984600239B4601225A
S2140083A03B493C483C4B98473A4B9A4601270422A7
S2140083B0994659464B4259418B46307853461B687E
S2140083C0197E3942FCD0197E3942FCD09862197E5B
S2140083D01142FCD0494689798C4611E0002E3AD0ED
S2140083E0002C3ED00023984601339B466B46DD1D8D
S2140083F0D5E7604601280DD0986AC0B200290DD096
S214008400197E1142FCD0588B00211042F1D05A83BD
S2140084101E31EEE7986AC005C00DEFE72870013CF4
S214008420A4B25D44434659424B41F618002CC4D1D1
S214008430184B196802220B7E1342FCD00022144906
S2140084401448154B9847002003B03CBC904699460C
S214008450A246AB46F0BD0F204042F5E70F20404253
S214008460F2E70F204042EFE70E22FF320B490C489E
S2140084700C4B98470C480D4B98470D200C4B9847D3
S21400848001204042E0E7012398466B46DE1D84E764
S2140084906004002064040020B9EB0000DC520100F8
S2140084A0EC520100613D0100005301007D3E0100D9
S2140084B0953D010030B583B001AB00221A709A706A
S2140084C05A70134D2C682000124B98471F231840F3
S2140084D01E3B8340802210498B502A68D369002BAC
S2140084E0FCD18F33237523762368022293432360BF
S2140084F001A90C20094CA04701A90F20A04701A9FB
S2140085000D20A04701A90E20A047002003B030BDD3
S21400851064040020F9E7000000E100E021E4000028
S214008520002A06D082180B78037001300131904281
S214008530F9D17047002A04D08218017001309042A9
S214008540FBD1704703000278002A07D000200130D4
S21400855080B201331A78002AF9D170470020FCE770
S214008560024AD3780133DBB2D3707047A0040020F0
S2140085707047000000B583B000220A4B9A700120B5
S214008580094B984701A90948094B9847002801D08C
S21400859003B000BD0221019B194301910348054B1E
S2140085A09847F5E7A0040020418200007010000004
S2140085B0BD990000C999000010B50C4B9B780020AF
S2140085C0002B0DD1094B5B78002B03D1074B1B7892
S2140085D0002B06D1054A53780133DBB253700020D6
S2140085E010BD034B98470028F4D0F9E7A0040020FC
S2140085F0A5960000054B5B78002B04D0034A537801
S214008600013BDBB2537000207047C046A004002038
S21400861010B50B4B5B78002B04D0094A5378013B0E
S214008620DBB25370064B5B780020002B03D1044B63
S2140086301B78002B00D110BD024B9847FBE7C046C5
S214008640A00400203D96000010B5054B9847040096
S214008650282200210348044B9847200010BDC0463E
S214008660B9850000A004002035850000F0B5DE4680
S214008670574680B589B083468A460192009310AB70
S21400868080CB1E8812AB1D887F220A4007AB5A702B
S214008690187008225A80002F3DD05A889219AA18BE
S2140086A092B25A80694B9847041E00D0C1E000235E
S2140086B0059302AAD3800493049B5A461A43049255
S2140086C0049A53461B021343049307AB5B88049A31
S2140086D01B041343049304995D485E4B9847041E9D
S2140086E057D100230493049B022213430493049956
S2140086F05948584B9847041E4BD10022059202ABAE
S214008700DA8006331B889BB2544A934249D8544CAD
S214008710544B9A4617E007AB5A8800998C46624439
S21400872092B25A80BEE70120D047049B9B0728D50B
S21400873002ABDA88013292B2DA8006331B889BB22B
S214008740464A93422DD804A94348A047002828D17A
S21400875002AB06331B889BB2F422FF329342E4D965
S21400876002AB06331B889BB201329342DBD83E48ED
S2140087703E4B98473E483F4B98470D203E4B984708
S214008780D1E705A93D48364B9847041E09D000237B
S21400879005933B4B9847200009B00CBC92469B467D
S2140087A0F0BD059B002B3FD0059B069307A94B8881
S2140087B09BB24B8006980822324B9847041EE8D19D
S2140087C0069B08330693019B002B0BD00698009A55
S2140087D019002C4B9847041EDBD1069B009A944642
S2140087E063440693002F0ED0069B009AAD1AED1830
S2140087F00695069832003900224B9847041EC8D1C9
S214008800069BF3180693059B9B000493049B022289
S2140088101343049304991C480E4B9847041EB8D182
S2140088201A4B98470400B6E7184B9847032464424F
S214008830B1E7CB225200164916480C4B984716480B
S2140088400C4B98470D200C4B9847A4E7B9850000C1
S2140088508C100000C999000078100000E7030000A3
S214008860BD990000298100001C560100613D0100F1
S214008870285601007D3E0100953D010000041500CC
S214008880F58500003D9A00006C100000118600007F
S21400889034530100EC52010038560100F0B5CE46C4
S2140088A0474680B587B0CF4B9846994680E0CD4B7B
S2140088B0059A5A609D6004AF042239000598CA4B99
S2140088C0984704007B889BB27B80002833D104AB9A
S2140088D05B889BB29D4204D004AB5B88EB1A042BEA
S2140088E039DC04AB1B78012B4ED004AB1B78022B73
S2140088F078D004AB1B78042B00D190E004AB1B7837
S214008900062B00D1A8E004AB1B78072B00D1BFE0F4
S21400891004AB1B78052B00D1D6E0B44AB449B54861
S214008920B54B9847B548B64B98470D20B54B98477A
S2140089300624644216E1D222FF32AD49AD48AE4B62
S2140089409847B148AE4B98470D20AE4B984701204C
S214008950AE4B984706E1ED225200A549A548A64C25
S214008960A04704A94A8892B20B78DBB249780091F6
S2140089702900A748A0470D20A24B98470120A34BEB
S214008980984706246442EDE0964BDB68002B1CD02B
S214008990944BDB6804AA5078C0B25188059A083216
S2140089A0083989B298478F4B9B78002B00D09CE003
S2140089B04346DB78002B00D158E14B46DB78013B81
S2140089C0DBB24A46D370934ED7E0F3225200884972
S2140089D08848894B98479048894B98470D20894B83
S2140089E09847E0E77F4B1B69002B0BD07D4B1B693C
S2140089F004AA5078C0B25188059A0832083989B25C
S214008A009847D0E7F722520079497A487A4B984738
S214008A1082487B4B98470D207A4B9847C3E7714BAB
S214008A205B69002B0BD06F4B5B6904AA5078C0B211
S214008A305188059A0832083989B29847B3E7FB226D
S214008A4052006B496B486C4B984775486C4B98477F
S214008A500D206C4B9847A6E7624B1B6A002B0BD089
S214008A60604B1B6A04AA5078C0B25188059A083237
S214008A70083989B2984796E76A4A5D495D485E4B71
S214008A80984769485E4B98470D205E4B98478AE7A3
S214008A90544B9B69002B0BD0524B9B6904AA507811
S214008AA0C0B25188059A0832083989B298477AE7E1
S214008AB05E4A4F494F48504B98475D48504B984741
S214008AC00D20504B98476EE7464B5B6A002B00D153
S214008AD069E7444B5B6A04AA5078C0B25188059A8D
S214008AE00832083989B298475DE7524A40494148FA
S214008AF0414CA04704AB1978C9B25A78D2B24E4856
S214008B00A0470D203F4B98474C4B9847041E29D151
S214008B104EE78722920036493648374B98474848F2
S214008B20374B98470D20374B98470224644219E08C
S214008B30892292002E492F482F4CA047039941487E
S214008B40A0470D202F4B98470C2464420AE03E4A6B
S214008B5027492848284B98473C48294B98470D20DA
S214008B60284B98473A4A3B492248234FB8472100AA
S214008B703948B8470D20234B984703A93748B047D4
S214008B80041EE4D1039BDB07D2D500201F4B984779
S214008B9001230399994303913048314B9847041EAB
S214008BA0E0D101220F4B9A70039B9D042D0DB0D08F
S214008BB00023059305A92B48164B9847041E00D1A1
S214008BC075E6C822FF320A490A480B4B98472648E2
S214008BD00B4B98470D200B4B984701200B4B9847A3
S214008BE0C0E7C046A0040020D59900000F02000090
S214008BF040530100EC520100613D01009C5401000D
S214008C007D3E0100953D0100985301004182000021
S214008C10B0530100BD990000F0530100105401004C
S214008C2034540100FF010000545401000602000005
S214008C307854010015020000B45401007585000048
S214008C40E0540100F45401002D020000105501000C
S214008C504A0200004853010034550100701000001D
S214008C60C99900008410000074530100002007B06A
S214008C700CBC90469946F0BD70B514001D00002847
S214008C8003D0002901D0002A12D1002D02D0274B94
S214008C90984770BD264A27492748284B98472848B2
S214008CA0284B98470D20284B98470C204042F0E769
S214008CB0264B9B689A421AD8244B5B68984226D368
S214008CC08618224A536892689B189E421FD8220034
S214008CD01F4B98470028DCD11C4A536892689B18A3
S214008CE09E4201D0002DD4D0104B9847D1E7194AA8
S214008CF010491148114DA847144B9A682100164890
S214008D00A8470D20104B98470C204042C1E7134A55
S214008D1008490948094B984711480A4B98470D20BF
S214008D20094B98470C204042B3E7C04675850000C3
S214008D306B02000058530100EC520100613D010037
S214008D40645501007D3E0100953D0100A004002011
S214008D50D5990000730200008455010079020000D6
S214008D60CC55010070B5040007281FD88300164AAA
S214008D70D3589F46154B1961002070BD134BD96020
S214008D800020FAE7114B59610020F6E70F4BD96136
S214008D900020F2E70D4B19620020EEE70B4B9961BD
S214008DA00020EAE7094B59620020E6E7084A09492D
S214008DB009480A4DA84721000948A8470D20094B35
S214008DC098470C204042D8E714530100A004002026
S214008DD0B102000064530100EC520100613D010045
S214008DE010560100953D010010B5282200210648C6
S214008DF0064B98470648074B984707490320074BFA
S214008E009847002010BDC046A0040020358500000D
S214008E1061850000E981000071850000658D000015
S214008E2030B59FB0040015002C282FD01B283DD04D
S214008E3006284BD00E2827D0322857D02F2865D0AA
S214008E40342800D177E0112800D196E0132800D10D
S214008E50ACE0042800D1BBE0652800D1CAE00928B0
S214008E6000D1D9E02A2800D1E8E0202800D1F7E098
S214008E709222520089498A488A4DA84721008A488A
S214008E80A8470D20894B98471FB030BD0023042209
S214008E9003A92800864CA0470028F5D1854B1B68FF
S214008EA0002BF1D003A92C309847EDE700230822C9
S214008EB003A928007E4CA0470028E5D17D4B1B68FF
S214008EC0002BE1D003A91B309847DDE701233022B1
S214008ED003A92800764CA0470028D5D1754B1B68FF
S214008EE0002BD1D003A906309847CDE700231422E3
S214008EF003A928006E4CA0470028C5D16D4B1B68FF
S214008F00002BC1D003A932309847BDE76422002168
S214008F1003A8694B98470023642203A92800644CE1
S214008F20A0470028B0D1634B1B68002BACD003A928
S214008F302F309847A8E70023042203A928005C4C9A
S214008F40A0470028A0D15D48564DA847039C230A99
S214008F50FF200340220C0240210E2040009058487B
S214008F60A8470D20514B9847524B1B68002B00D149
S214008F708AE700213420984786E70022514B1A7072
S214008F800023043203A92800494CA047002800D03B
S214008F907AE703AB1A784C4B1A70464B1B68002BCB
S214008FA000D171E703A9113098476DE700232C2202
S214008FB003A928003E4CA047002800D064E73D4B9C
S214008FC01B68002B00D15FE703A9133098475BE7C7
S214008FD0002304221CA92800354CA047002800D0F6
S214008FE052E7344B1B68002B00D14DE71CA9043018
S214008FF0984749E7002304221CA928002C4CA047C8
S214009000002800D040E72B4B1B68002B00D13BE725
S2140090101CA96530984737E70123642203A9280076
S214009020234CA047002800D02EE7224B1B68002BBD
S21400903000D129E703A90930984725E70123042230
S21400904003A928001A4CA047002800D01CE7194B9B
S2140090501B68002B00D117E703A92A30984713E7AF
S2140090600023082203A92800114CA047002800D09E
S2140090700AE703AB9A8828000830012303990C4CB2
S214009080A047002800D0FFE60A4B1B68002B00D143
S214009090FAE603A920309847F6E6C0465456010083
S2140090A0EC520100613D0100A4560100953D01000F
S2140090B0798C000014020020358500001C56010043
S2140090C0845601001902002018020020F0B58FB067
S2140090D001220F236B441A70002861D00268324BBD
S2140090E01A600022314B1A700F206844304B9847A4
S2140090F0041E02D020000FB0F0BD00202D4B984774
S214009100041E49D12C4901202C4B984704AE300050
S2140091102B4B984704002B482B4DA847B379727900
S2140091203179308C00902948A8470D20284FB84741
S2140091302448A84726226A441A2169442548A84795
S2140091400D20B8471F48A847737A327AF17922482B
S214009150A8470D20B8471B48A8470223052213211D
S2140091601E48A8470D20B8471648A8471C4A1D4960
S2140091701D48A8470D20B84723000D33BAD1E82272
S214009180FF321A491A48104B98471A481A4B984704
S2140091900D200F4B9847ADE70020184B9847A9E7DE
S2140091A00C246442A6E7C0461402002019020020E0
S2140091B0899B0000E98D0000218E0000658D00006F
S2140091C0A59A00001C560100613D01006057010091
S2140091D0953D010088570100A4570100C8570100BB
S2140091E0E0570100EC570100F857010060560100F7
S2140091F0EC520100105801007D3E01005D9C00000D
S21400920010B50020034B98470020034B98470020DA
S21400921010BDC046498600005D9C000010B5014B9D
S214009220984710BD9D880000F0B5CE46474680B5ED
S214009230A3B005900C0015001F002AAB1B889946AA
S2140092402BAB1B789846012A03D0002F40D0022A69
S2140092504CD0631E1F2B00D978E04B46013B9BB2D7
S2140092600D2B03D94B46FF2B00D07DE007AE220026
S21400927005995A2002AB9C466044784B98473419AF
S21400928046340023237044334A46F25243465A1E5D
S21400929093416722B3544123F554032D00D172E065
S2140092A0022D00D1ABE0042D00D1C3E0012D00D08B
S2140092B0C6E000230293019300936C3307AA28218B
S2140092C00120674CA04723B00CBC90469946F0BDE1
S2140092D0644A65496548664B98476648664B9847B2
S2140092E00D20664B98470C204042ECE73800644B54
S2140092F098474028ADD13B781A00303A362A17D81E
S2140093000A3A062A14D9473B192B11D97A1C380079
S2140093104030137819003039362909D80A39062919
S21400932006D9473B192B03D901328242F1D190E787
S214009330544A4D494D484E4B984753484E4B9847D4
S2140093400D204E4B98470C204042BCE74F4A4649FA
S2140093504648474B98474E48474B98470D20474B43
S21400936098470C204042AEE78D2292003E493F4887
S2140093703F4B98474748404B98470D203F4B9847F0
S2140093800C2040429FE73B78013BDBB207AA1370F4
S214009390032B17D87A78511E07AB5970102311008B
S2140093A099430B291DD03C4A2F493048304CA047E2
S2140093B007AB59783948A0470D20304B98470C200A
S2140093C0404280E7364A28492848294CA04707AB40
S2140093D019783448A0470D20284B98470C20404267
S2140093E071E7B91C162002AB9C4660441B4B98479D
S2140093F07B7807AA9446634400229A7059E738009F
S2140094001F4B9847431E9BB23F2B05D8421C390082
S21400941007A8124B98474CE7234A13491348144BA6
S21400942098472248144B98470D20144B98470C2019
S214009430404248E73E22390007A8084B984738E7DD
S2140094401B4A094909480A4B98471A480A4B984745
S2140094500D200A4B98470C20404234E72185000037
S2140094606D8600001502000070560100EC520100E7
S214009470613D0100B85601007D3E0100953D0100AA
S2140094804585000021020000CC5601002B0200009A
S214009490D8560100EC560100520200001457010095
S2140094A04B020000F8560100610200003057010030
S2140094B0710200004C57010030B583B006AC24881A
S2140094C0002501950094024CA04703B030BDC0466D
S2140094D02992000000207047F0B583B080256D000B
S2140094E00543A5246401084F084E29002000B8470C
S2140094F00023019301A92000B0470028F5D1019B65
S2140095009D42F2D103B0F0BDC9990000BD9900009C
S21400951000B583B00023019301A91148114B984769
S214009520002801D003B000BD80214900019B1943EB
S21400953001910B480C4B98470028F3D101A9D02085
S2140095404001084B98470028ECD180214902019B36
S21400955019430191D0204001034B9847E2E7C046EB
S21400956008140000BD990000C999000010B582B02B
S214009570284B1C68002C04D0264B1C68200002B028
S21400958010BD190080204001234B9847002803D0C7
S2140095900022204B1A60F1E701A920481E4B98478D
S2140095A0002803D000221B4B1A60E7E7194B1B6804
S2140095B01B4A93420ED01B4A934212D01A4A934239
S2140095C01CD01449194A0B681A40A023DB02134327
S2140095D00B60D1E7019B012BF3D0154A0D4B1A60A7
S2140095E0EFE7019B032BECD0042B03D0114A094B69
S2140095F01A60E6E7104A074B1A60E2E70549EC20D6
S2140096008003054B98470028DBD00022014B1A60E8
S214009610B4E7C0461C020020BD990000F413000009
S214009620A0021000B0021000F0001000FFFFF0FFD4
S214009630A1021000B2021000B102100030B583B0D3
S214009640164C012501A91020A04700281CD1019B1B
S2140096502B42F7D101A90130104B9847002813D1AF
S21400966001998B0707D502239943019101300C4BD2
S2140096709847002808D101A90B20084B98470028D6
S21400968002D10199CB0701D403B030BD0123994321
S21400969001910B30024B9847F6E7C046BD99000093
S2140096A0C9990000F0B583B000230193009301A987
S2140096B00B20284B9847041E30D10199CB0706D4BF
S2140096C0012319430B20244B9847041E26D101A9D9
S2140096D00120204B9847041E20D101998B0720D5E6
S2140096E005251C4F1D4E69460F20B847041E20D185
S2140096F0009B5B072BD40220B047013D002DF2D122
S214009700AF22520016491748174B98471748184B70
S21400971098470D20174B984704246442200003B056
S214009720F0BD0223194301200B4B9847041ED7D0E7
S214009730F4E7AA2252000A490A480B4DA847009AA5
S21400974021000D48A8470D200A4B9847E6E70B4B2B
S2140097509847E3E7BD990000C999000029810000F9
S2140097602C580100EC520100613D010074580100C4
S2140097707D3E0100953D01005C580100A599000062
S214009780F8B507002D4D2E4C2E4E2800A047002879
S21400979002DB0120B047F8E72B48294B9847C30760
S2140097A009D4284E294C264D0120B0472000A84752
S2140097B0274B9842F8D1022F21D0032F29D0042F0F
S2140097C030D024492448254B98470024244B9847FA
S2140097D00005000D234B98422AD82000224B9847BC
S2140097E02248234CA0471B492248A0470D20224B65
S2140097F0984722491548194B98470020F8BD20493C
S2140098002048164CA047802149031348A04700244F
S214009810DCE71B491B48114CA04700210E48A04717
S2140098200024D3E70B490C480C4B98478024CDE71F
S214009830022020430C4B9847D2E7C0461410000085
S214009840B199000029810000BC0702000C000C0042
S2140098509ED0AD10521352138C100000C999000010
S2140098606D9500009F030000D99400001C5601006F
S214009870613D010090580100953D0100612F52EFB7
S2140098807DD51C3CAC07020070B582B0154B019329
S214009890154B00930238012811D901246442002098
S2140098A0124E134D009B98420ED00220B0470198EE
S2140098B0A847013C002CF5D10520404209E00D4B9D
S2140098C001930D4B0093E8E7009A074B00209A425D
S2140098D001D002B070BD00210248084B9847002016
S2140098E0F7E7C0468C100000362653022981000098
S2140098F0B1990000AC070200C3C15DD7C99900004A
S21400990010B582B00023019301A9A0204001144B9A
S2140099109847041E15D11349019B19400191A020B8
S2140099204001114B9847041E16D0104A10491148A2
S214009930114B98471148124B98470D20114B9847EA
S2140099400AE0114A0A490B480B4B98470B480C4B48
S21400995098470D200B4B9847200002B010BDC0461C
S214009960BD990000FFFBFFFFC99900000B02000035
S21400997038580100EC520100613D010044580100D6
S2140099807D3E0100953D01000502000010B5014B2B
S214009990984710BD6582000010B5014B984710BD72
S2140099A0B584000010B5014B984710BD55A30000C4
S2140099B010B5014B984710BD8DA3000010B5014BA4
S2140099C0984710BDA1A3000010B5014B984710BDE5
S2140099D0B9A30000F0B5D6464F464646C0B582B09D
S2140099E0804689461500134B1F88083FBBB201937B
S2140099F01E0004009A421AD90F4B9A46371A43465D
S214009A00E11A4944019A2000D047002809D1AD1B2D
S214009A103919A419B542F2D8AAB249442000064B17
S214009A20984702B01CBC90469946A246F0BD00215D
S214009A30F2E7C04600000020FDA40000F0B5D646C0
S214009A404F464646C0B582B0804689461500134B41
S214009A501F88083FBBB201931E0004009A421AD921
S214009A600F4B9A46371A4346E11A4944019A20009A
S214009A70D047002809D1AD1B3919A419B542F2D830
S214009A80AAB249442000064B984702B01CBC904638
S214009A909946A246F0BD0021F2E7C046000000202D
S214009AA059A6000070B584B0040000230393082272
S214009AB0002101A82D4B9847002C44D028220021D5
S214009AC020002B4B984703A92A482B4B9847002881
S214009AD03AD1039B002B39D0C020800218430822BD
S214009AE001A9264B984700282ED1029B1804000C8B
S214009AF003902ED0C0239B021843282221001F4B20
S214009B009847002820D121790902A2790F231A400C
S214009B100A4361790901FF2529400A43E1790902D0
S214009B20667A33400B43217A09010D402B43002A05
S214009B3012D0002B13D012498B4213D8114B9A42E5
S214009B4002D80D3800E0002004B070BD0C20404262
S214009B50FAE70C204042F7E70C204042F4E70C20DE
S214009B604042F1E70D204042EEE7C046FF3B0100D1
S214009B703585000008000C00BD990000D59900004E
S214009B80521300005113000070B5002837D0057836
S214009B906B1E032B00D901250020204B9847041E7E
S214009BA02FD11F481F4CA0471F4B984701001F4846
S214009BB0A0470D201E4B98471E4B984728001E4B6B
S214009BC09847041E17D128001C4B9847041E12D134
S214009BD0023D012D11D91A4B9847041E0DD056226E
S214009BE0FF32184918480F4B98471848184B9847A3
S214009BF00D200F4B9847174B9847200070BD012546
S214009C00CAE72822FF320F490F48064B98471248EA
S214009C100F4B98470D20064B9847EEE78D990000AE
S214009C201C560100613D01006D9500006059010061
S214009C30953D0100D1A3000081970000899800009F
S214009C4011950000A8580100EC52010024590100AB
S214009C507D3E0100999900004459010010B51C4B47
S214009C609847041E0BD100201A4B9847041E14D1A7
S214009C70194B9847041E1DD1184B98470BE0B62287
S214009C80520017491748184B98471848184B9847DA
S214009C900D20184B9847200010BD7422FF32104943
S214009CA01048114B98471448114B98470D20114BFC
S214009CB09847F0E77A22FF3209490A480A4B984744
S214009CC00E480B4B98470D200A4B9847E3E7C046D3
S214009CD0019900002DB20000999900007DA30000B4
S214009CE0B4580100EC520100613D0100C458010067
S214009CF07D3E0100953D0100E45801000859010031
S214009D0000B585B001AB01900022029219811900BE
S214009D100320024B984705B000BDC046698300008B
S214009D2070B584B008AC257801AC20703F30C4B262
S214009D300E2C00D984E0A0004F4C2058874601AB7B
S214009D400A0C5A700A0A9A70D97005214B4B1B7878
S214009D50002B77D00139C9B283E00B0ADBB2002DA5
S214009D6007D101AA537001AB99700022DA70052161
S214009D70ECE780225242134301AA5370F3E701AB8B
S214009D8000225A709A70DA700521DFE701AB0022D4
S214009D905A709A70DA700521D8E701ABFF225A7024
S214009DA09A70DA700521D1E701AA080C5070080AEB
S214009DB09070D170190A117153710721C6E701AA74
S214009DC0080C5070080A9070D170190C1171190A9D
S214009DD0517193710821B9E70B0ADBB2002D0CD143
S214009DE001A8437001AB9970110ED970110C19714E
S214009DF0110A59719A710821A8E78020404203434E
S214009E0001A84370EEE701AB080C5870080A98707A
S214009E10D970110E1971110C5971110A9971DA71F4
S214009E20092193E72822FF3215491648164B984712
S214009E301648174B98470D20164B9847002317E0F7
S214009E40002315E04E1E01AA95197F23124C5B00D5
S214009E5010784340E35C0132AA42F8D15B0001AAC5
S214009E60935589B201A80D4B984701230028D9D1F4
S214009E70180004B070BDC0467059010020020020D2
S214009E80B0590100EC520100613D0100405E010046
S214009E907D3E0100953D01003C5A0100019D0000F9
S214009EA000B585B001AB002201920290198119001D
S214009EB00320024B984705B000BDC04669830000EA
S214009EC0F0B5C64600B582B00700CF282BD00300F9
S214009ED03B33DBB2012B26D90B246B46DE1D264B0B
S214009EE0984601213000C047051E25D13378BB4275
S214009EF030D0013CE4B2002CF3D10B346B46DE1DAF
S214009F001D4F01213000B847002825D13378002B9B
S214009F102FD0013CE4B2002CF3D10125280002B07A
S214009F2004BC9046F0BD01216B46D81D124B9847E5
S214009F3000250028D0D0F1E7B12252000F49104882
S214009F40104B98471048114B98470D20104B9847D8
S214009F500025E3E70B24D1E7B8225200074908485A
S214009F60084B98470848094B98470D20084B9847D8
S214009F70D4E70125D2E7C046A19E0000C8590100DB
S214009F80EC520100613D01006C5E01007D3E010067
S214009F90953D0100F0B5DE4657464E464546E0B5CF
S214009FA087B001908946029200239A4680239B013F
S214009FB09B466A46D3813B4B98462EE03A4A3B493D
S214009FC03B483C4B98473C483C4B98470D203C4B05
S214009FD098470025280007B03CBC90469946A24604
S214009FE0AB46F0BD002C2EDD019B53441800390013
S214009FF02C4B9847041E33D1029B002B03D1314BC8
S21400A0001B78002B39D05346FB181BB29A464B469A
S21400A010DF1BBBB29946002B42D04F46D94501D92B
S21400A0206B46DF89BFB20A2404ABDE1C0121300078
S21400A030C047051EC2D133781B090F2BD2D0013C76
S21400A04024B2631CF2D1204A18491948194CA0477B
S21400A05004ABD9781D48A0470D20194B9847B9E79F
S21400A060C522920011491248124B98471848134BC4
S21400A07098470D20124B9847ACE7022105A8094BDC
S21400A08098470028BFD0134A08490948094B984703
S21400A09011480A4B98470D20094B9847250099E729
S21400A0A0012597E7A19E0000FF020000D459010099
S21400A0B0EC520100613D0100A05E01007D3E010002
S21400A0C0953D0100200200200B030000D45E010035
S21400A0D0045F01001F030000345F0100F0B5D646A0
S21400A0E04F464646C0B586B00390049130280FD838
S21400A0F0304B1F78FBB205930023302203998A4227
S21400A1005B41DBB29A460A252B4B9846D14633E094
S21400A1102A4B1F78EEE70598294B9847040001283C
S21400A12041D0E722920027492748284EB047039996
S21400A1302748B0470D20274B98470120264EB047AA
S21400A1400023009300220021CF201B4FB847CF20CA
S21400A1501B4B9847214A1B491B481C4FB847049B7A
S21400A160039A29001E48B8470D201A4B984701202D
S21400A170B047013D002D16D04B4600930423049AA9
S21400A180039F39000598C04704000128C3D0154A2C
S21400A1900C490D480D4EB04739001348B0470D2006
S21400A1A00C4B9847C9E7200006B01CBC9046994661
S21400A1B0A246F0BDAC590100219D0000AD5901003A
S21400A1C0C19E0000F4590100EC520100613D0100FF
S21400A1D02C600100953D010029810000AF030000BE
S21400A1E0646001009603000000600100F0B5DE46E2
S21400A1F057464E464546E0B587B002908B46FF2848
S21400A2000FD8414B1F78FBB203930023FF2202991D
S21400A2108A425B41DBB29A460A253C4B9846D146B9
S21400A22031E03B4B1F78EEE703983A4B9847040023
S21400A23001283FD0384A394939483A4EB047029942
S21400A2403948B0470D20394B98470120384EB04763
S21400A2500023009300220021CF202C4FB847CF20A8
S21400A2602C4B9847334A2D492D482E4FB847029A13
S21400A27029003148B8470D202C4B98470120B0479D
S21400A280013D002D37D04B46009304230022029F49
S21400A29039000398C04704000128C5D0274A1F4943
S21400A2A01F48204EB04739002548B0470D201F4BA9
S21400A2B09847CAE74A46042105A8224B9847040057
S21400A2C001280BD0204A15491548164B98471F48B9
S21400A2D01F4B98470D20154B9847B6E705AA5378AD
S21400A2E01B02917809040B4311780B43D2781206AF
S21400A2F013435A461360200007B03CBC904699466C
S21400A300A246AB46F0BDC046AE590100219D0000F6
S21400A310AF590100C19E00001D040000145A010040
S21400A320EC520100613D0100945F0100953D010083
S21400A330298100003C040000E85F010017040000CB
S21400A340685F0100959F000024040000C85F0100BC
S21400A3507D3E010010B582B000230093002200214C
S21400A360CF20044CA047CF20034B9847002002B0D4
S21400A37010BDC046219D0000C19E00000022024B79
S21400A3801A7000207047C0462002002000B583B037
S21400A39001A9024B9847019803B000BDEDA100004B
S21400A3A010B5044B98470023012801D1180010BDB2
S21400A3B0063BFBE7EDA1000010B5044B98470023D1
S21400A3C0012801D1180010BD063BFBE7DDA0000008
S21400A3D010B582B000230093354A1370694635489D
S21400A3E0354B9847002828D0314B1B78002B0DD1D1
S21400A3F07C33009999432C3B194300912D482F4BF1
S21400A4009847041E39D00122294B1A7001A98020D2
S21400A4104001294B984700283BD0264C2000284B6B
S21400A4209847702301009943502001432000254B94
S21400A43098470024200002B010BD01221C4B1A7061
S21400A440214A22492248234B98472348234B9847C2
S21400A4500D20234B984769461648174B9847041E0D
S21400A460C2D1204A19491A481A4B98471E481B4B16
S21400A47098470D201A4B9847DCE71C4A13491448A6
S21400A480144B98471A48154B98470D20144B98477D
S21400A490D0E7184A0D490E480E4B984716480F4B02
S21400A4A098470D200E4B984706246442C2E7C046E4
S21400A4B02002002024E80000EDA10000DDA000003E
S21400A4C08DA30000B9A30000C7040000305A0100A5
S21400A4D0EC520100613D01003C5B01007D3E010045
S21400A4E0953D0100CA0400008C5B0100D404000006
S21400A4F0B85B0100DE040000EC5B0100F0B5DE4650
S21400A50057464E464546E0B587B002900391160082
S21400A5100A2500239B4600243E4B9846A94637E072
S21400A52001239B46013635E0C8203B4B984701285F
S21400A53045D03A4A3A493B483B4FB84702993B48D0
S21400A540B8470D203A4B984701203A4FB847009439
S21400A550230022002100CF202E4DA847CF202E4BCF
S21400A5609847354A2E492F482F4B9A46984733002E
S21400A570029A49463148D0470D202D4B9847012076
S21400A580B84701235B429C46E1444B46002B38D03B
S21400A590012EC5D0009433002200029D2900C82059
S21400A5A0C0470128C0D0264A1D491E481E4FB8473E
S21400A5B029002448B8470D201D4B9847C4E75B4642
S21400A5C0002B16D005AF2200310038001E4B9847EE
S21400A5D03B78039A1370012811D01C4A1049114881
S21400A5E0114B98471A481B4B98470D20104B98471D
S21400A5F0AAE7220031000398134B9847EBE70020A8
S21400A60001E00620404207B03CBC90469946A24670
S21400A610AB46F0BD219D0000C19E00006304000013
S21400A620245A0100EC520100613D0100405C01002B
S21400A630953D01002981000084040000A05C010013
S21400A6405D040000105C0100959F0000730400008C
S21400A650785C01007D3E0100F0B5DE46474680B5D9
S21400A66089B004908B4603920A268027BF016B466A
S21400A670DF8235002DE0013303932DE0834A8449C1
S21400A6808448854CA04731008448A0470D20844B61
S21400A69098470120834CA047002300930022002106
S21400A6A0CF20814EB047CF20804B9847804A7849CC
S21400A6B07848794EB047039B049A29007D48B047F6
S21400A6C00D20774B98470120A047013D002D00D173
S21400A6D0D5E0039B012BCED000230093039B0022E2
S21400A6E0049E3100C720704CA0470128C6D1C72061
S21400A6F06E4B984701280CD0F422920064496548B6
S21400A700654CA04704996C48A0470D20644B9847B9
S21400A710BFE7002207AB1A80039C0026A846350038
S21400A720260021E00023B7425B4102330B2004AA37
S21400A73094466044102252421343037001215F4B3B
S21400A740984700281DD15B46581921005B4B984757
S21400A750002830D15A4B1B78002B39D065192DB202
S21400A760361BB6B2002E53D0341CBE4201D96B46FF
S21400A770DC8AA4B2002DD5D10323BE42D6D9023B33
S21400A780D4E74546D42292004E494248424B984769
S21400A7904D484E4B98470D20414B9847F822920063
S21400A7A03B493C483C4B98474948484B98470D2006
S21400A7B03B4B98476DE74546464A42493548364B37
S21400A7C098474548414B98470D20354B9847E5E755
S21400A7D0022107A8394B98470028BFD045463F4A74
S21400A7E038492C482C4B98473D48384B98470D2005
S21400A7F02B4B9847D2E73C22FF323A492548264B56
S21400A80098473948314B98470D20254B984727E005
S21400A81045462B4B1C78631E9C410234A1B207A808
S21400A820324B98470028E6D108AB1B19053B1B782E
S21400A830002B06D108AB9C466444063C2378C32B09
S21400A8401BD0A122520027491248134CA04707A943
S21400A8508B784A7809782648A0470D20104B9847F1
S21400A860FA2292000A490B480B4B98471848174B98
S21400A87098470D200A4B98470BE7002001E006207A
S21400A880404209B00CBC90469B46F0BDCA0300008F
S21400A890045A0100EC520100613D0100BC5C01005D
S21400A8A0953D010029810000219D0000C19E000009
S21400A8B0F2030000A05C0100EC5C0100019D0000BA
S21400A8C020020020E4590100245D01007D3E0100C5
S21400A8D0185E0100590300005C5D01006303000080
S21400A8E0905D0100B8590100C85D0100A19E0000FE
S21400A8F0E85D0100F0B5DE4657464E464546E0B5F3
S21400A90085B001900E0002921D000EAB1C88002C34
S21400A91064D0030135495B58002B5FD00101334BEF
S21400A9205B189B889BB2002B58D0304B5B189B7AE9
S21400A930012B53D1F4802D4B9B468B445B460A2259
S21400A9409046D8448A460095039315E025000123D7
S21400A9501CE00133002200210020254CA0473DE0EA
S21400A9602448254DA84721002448A8470D20244BFD
S21400A970984733E0002C31D05B469B88E31A1BB225
S21400A980002BE3DD039B9D88ADB20023174A51469A
S21400A99089582A000098164FB8470028E0D1134B74
S21400A9A05246D3583360B580F3885B1BF380154B53
S21400A9B01B68002B05D0134B1B68320002990198C8
S21400A9C09847641BA4B2009B9C46AC446346009325
S21400A9D043461B78002BCDD1002CBAD105B03CBC29
S21400A9E090469946A246AB46F0BDC046CC04002031
S21400A9F0798C00001C560100613D0100806001005A
S21400AA00953D01007C050020F0B5D6464F464646EB
S21400AA10C0B59AB00D001400412839D0542837D05C
S21400AA20422853D043286AD0442800D1AFE04B28B0
S21400AA3000D1ACE04A2800D1CFE0462800D1E5E0BE
S21400AA40482800D10EE14D2800D1DCE0452800D191
S21400AA502CE1472800D14DE107254C2800D126E1FE
S21400AA6052282DD10123142209A92000A24CA04768
S21400AA70002825D1A14B0A9A1A601B68002B1FD00C
S21400AA809E4B1C6809AB1A7C0B990998A04717E0E7
S21400AA900023042209A92000974CA04700280FD1C4
S21400AAA009AB5A7805AB1A70954B1B68002B07D07C
S21400AAB0934B1B6809AA0020105605AA0121984747
S21400AAC01AB01CBC90469946A246F0BD002304224C
S21400AAD009A92000884CA0470028F1D109AB5A7874
S21400AAE005AB1A70864B1B68002BE9D0844B1B689D
S21400AAF009AA0020105605AA02219847E0E700237D
S21400AB000C2205A920007C4CA0470028D8D105AB14
S21400AB1009229A56002A24DB180008215956794B38
S21400AB2009015918C97AC9B214011B19D972012131
S21400AB3099724189083989B2198173490B880133A2
S21400AB409BB20B800B889BB2002B03D10B88013382
S21400AB509BB20B806C4B198889B21001694B1B188D
S21400AB60D98009AB1A7002229A8005AA5188D9802A
S21400AB70069A0B92624B1B68002BA1D0604B1B6899
S21400AB8005AA0820105609AA0421984798E700232A
S21400AB90042209A92000584CA047002800D08FE7BF
S21400ABA009AB0020185605AA10705B785BB253708C
S21400ABB0002B07D109AB5B88083B9BB20101514AC9
S21400ABC0521813814E4B1B68002B00D178E74C4B74
S21400ABD01B6805AA0521984772E70023442209A9A5
S21400ABE02000454CA047002800D069E7474B1B686B
S21400ABF0002B00D164E7454B1B68199A039211009D
S21400AC0009A898475CE706239A4601E006239A4679
S21400AC100023102205A92000374FB847002800D08F
S21400AC204EE705AA0C201056D38907013549C919E5
S21400AC3000270F730826975FB8465789B94609AFAD
S21400AC4056887E81069A0C92CA8892B293420CD09D
S21400AC50102D00D834E70123002200210020264CC6
S21400AC60A0472DE709239A46D2E74346002B01DD8D
S21400AC70A8450FDB09AB42469A8000230993204B78
S21400AC801B68002B00D11BE71D4B1B6809AA514609
S21400AC90984715E723004B44424669468A818A89CD
S21400ACA00092524639001A4CA04709E707250023B0
S21400ACB0082209A92000104CA047002800D0FFE673
S21400ACC009AB002018569A88598805AB19800101EF
S21400ACD00C4B5B18DB889BB29A4200D0F0E6084B20
S21400ACE01B68002B00D1EBE6054B1B6805AA290064
S21400ACF09847E5E60825DAE7798C0000800500200D
S21400AD007C050020CC0400202202002084050020C0
S21400AD10F5A8000010B50A4B1B78002B00D010BD1C
S21400AD20B02200210748084B984708490220084BE4
S21400AD3098470122024B1A700022064B1A80EEE753
S21400AD4021020020CC0400203585000009AA00005E
S21400AD50658D00002202002010B5B02200210748B1
S21400AD60074B984700210220064B98470023064AC7
S21400AD701360064A1360064A137010BDCC04002008
S21400AD8035850000658D00007C05002084050020C8
S21400AD9021020020024B1860024B19607047C04623
S21400ADA07C05002084050020F0B5D646474680B5D1
S21400ADB089B00592022800D09CE001290AD0022919
S21400ADC000D170E001256D42280009B00CBC904609
S21400ADD09A46F0BD494C2778FFB22678F6B220781E
S21400ADE001300631464B9847C9B221703201454BB7
S21400ADF09B189B7A0625002B18D0404E404B9A464F
S21400AE00404B98463778FFB23478E4B23078013059
S21400AE100721D047C9B23170230143449B7A002BE7
S21400AE2007D0013DEDB2002DECD1CBE7354BD41861
S21400AE3002E02401334BE4187DB2002DC4DB10225F
S21400AE4000212000304B98470123A3722F4A138815
S21400AE5001339BB2138013889BB2002B03D1138857
S21400AE6001339BB21380294E33889BB2E380284877
S21400AE70284FB847328892B229002748B8470D2095
S21400AE80264B9847059BDB079ED507AA15702123FE
S21400AE90E3720023029301930093043350210220AF
S21400AEA01F4CA04790E71F4B1D78EDB21C7824017D
S21400AEB01D4AA4181978013103220A401A70A37A91
S21400AEC0002B14D003221749174F03200D78EDB23C
S21400AED00C782401E4190B78013303400B70A37A35
S21400AEE0002B04D0013AD2B2002AEFD16AE7073528
S21400AEF06DB2A2E701256D4266E7C0462402002037
S21400AF0025220100CC040020358500002202002006
S21400AF101C560100613D0100AC600100953D01003A
S21400AF206D860000250200203C05002070B588B024
S21400AF30041E30DB002931D000011D4B1B189B7A04
S21400AF40012B2ED1002A2FD0194B1B18DB7A442652
S21400AF50DB0705D5164B1B18DA7A05AB5A7207368F
S21400AF6005AD2C7208222800124B98472401104B7E
S21400AF701C19E3886B8100230293019300930C3322
S21400AF802A00310002200C4CA047002801D00920DE
S21400AF90404208B070BD06204042FAE70620404214
S21400AFA0F7E706204042F4E706204042F1E7C046B5
S21400AFB0CC040020218500006D86000030B589B0E5
S21400AFC0002836DB002937D0AF23DB009A4236D87C
S21400AFD004011E4B1B199B7A012B33D104AB18704E
S21400AFE05A802500194C6419E4889C81502506284F
S21400AFF000DD0C3D0401154B1B19DC7A4523E407E4
S21400B00005D50001114B18180589ADB24C238020D8
S21400B0101843029501920091102304AA0100022011
S21400B0200B4CA0470023002800D00E3B180009B0A8
S21400B03030BD06235B42F9E706235B42F6E70623AC
S21400B0405B42F3E706235B42F0E7C046CC040020F1
S21400B0506D86000030B587B0002834DB002935D077
S21400B060002A36D005011E4C6419A47A012C33D16F
S21400B0701B4C29516419A280217B002200291DD176
S21400B08001212173E27A4531D20700D50731002B22
S21400B09017D1013B049304AA10710001104B181835
S21400B0A0C388D380002302930193009308330220C1
S21400B0B00C4CA0470022002800D00E3A100007B023
S21400B0C030BD0493E7E706225242F7E706225242D3
S21400B0D0F4E706225242F1E706225242EEE7C04665
S21400B0E0CC0400206D86000030B587B004001E48F2
S21400B0F01E4DA84721001E48A8470D201D4B984707
S21400B100002C2ADB22011C4B9B189B7A012B27D193
S21400B11005A90C70184B9B18DA884A8000229A7290
S21400B120DA80DB7A4921DB0700D50531002302935C
S21400B13001930093043305AA0220104DA847051E6C
S21400B14001D009256D4224010B4820181022002149
S21400B1500B4B9847280007B030BD06256D42F9E72F
S21400B16006256D42F6E7C0461C560100613D01000B
S21400B17094600100953D0100CC0400206D8600001F
S21400B1803585000070B582B00023019300260021AB
S21400B1900278441C05300B0009E09D005B195B003B
S21400B1A09B18DBB222000134A0420AD012782E2A65
S21400B1B00AD0002A0CD0303AD2B2092AEDD90020A3
S21400B1C000E0002002B070BD6A46B354200002E0E2
S21400B1D06A46B35420000136042ED9D104226946AB
S21400B1E001A8024B98470198ECE7C046218500006D
S21400B1F010B584B004000B4B9847C3B2402B0DD853
S21400B200FF230340013300220292019200922200A3
S21400B2104A210220044CA04704B010BD062040423C
S21400B220FAE7C046458500006D86000070B582B01E
S21400B23004002A4B98470005000D294B002598422C
S21400B24002D8280002B070BD01A92648264B9847B0
S21400B250051EF6D1254B019A134025491943019145
S21400B2602048244B9847002C20D000212248214C0F
S21400B270A047AB212148A04701212148A047002133
S21400B2802048A04781212048A047204E204C30006F
S21400B290A0470128FBD1154B019A13408021490293
S21400B2A0194301910F48134B9847CAE700211248EB
S21400B2B0104CA047B9211148A04701211048A047CB
S21400B2C000211048A04781210F48A0470F4E104C80
S21400B2D03000A0470128FBD1DDE7C0466D95000091
S21400B2E09F03000010140000BD990000FF8F88F82F
S21400B2F000101101C9990000080201000C020100AB
S21400B300140201001C0201000402010018020100E0
S21400B310B1990000F0B5C64600B5032307009F4369
S21400B3201368DB430C00032902D94442032004407F
S21400B330002C16D0091B3E1D3D68E0004042203020
S21400B340C5406B40E00019D00124274D03E05B08A0
S21400B3500138002804D01C42F9D05B086B40F7E7A0
S21400B360370003200C0084431ED0081B844689083F
S21400B37088463E000D0001201B4C0BE03700F0E72E
S21400B3805B080139002904D01842F9D05B086340F5
S21400B390F7E70436013D03D331684B402021F3E73D
S21400B3A0414689007F186146002917D03C68C800CE
S21400B3B04042203001256D42C540280020404340D1
S21400B3C0C9000BD00120084C03E05B0801390029B6
S21400B3D004D01842F9D05B086340F7E7DB431360FC
S21400B3E0002004BC9046F0BD2083B8ED1723002A49
S21400B3F001D0180070478B00064A9B58002B03D0DC
S21400B400834205D01D23F4E7890088500023F0E727
S21400B4100023EEE78C0500201723002901D0180032
S21400B420704700221F2800D8024A01238340D360B9
S21400B4300023F4E7001800401723002901D0180065
S21400B440704700221F2800D8024A012383409360D9
S21400B4500023F4E70018004070B50022104B1A7065
S21400B460002310491F25104E0D4C0AE00D4908E038
S21400B47023780133DBB223700F2B10D800211F2B4B
S21400B480F4D9280018400122824008691042EFD003
S21400B4900A619B009B59002BEAD09847E8E770BDED
S21400B4A088050020001800408C050020044A137808
S21400B4B002210B43137053785BB2002BFBDB704703
S21400B4C00018004000B583B0124A936940210B4330
S21400B4D0936101A900230B7005200F4B98470520A8
S21400B4E00E4B98470E4A137801210B43137053787E
S21400B4F05BB2002BFBDB0B4B19004031002204C370
S21400B5009942FCD11022084B1A60084B984703B0AA
S21400B51000BDC0460004004099FC00000DFC000081
S21400B520001800408C05002000E100E0ADB40000EB
S21400B5300023036043600122027242728372023368
S21400B540C3727047F0B583B005000C0001A9002354
S21400B5504B70CB7023790B70237A8B702078154B49
S21400B560984700201F2D00D8134807222A40920033
S21400B570E77AA37A002B01D008231F43EB089B0031
S21400B580C31899690F269640B14397403A000A437C
S21400B5909A61637A002B06D143690122AA4093433D
S21400B5A0436103B0F0BD42690123AB4013434361DE
S21400B5B0F7E7C04691FD00000018004010B50F4B9D
S21400B5C01A681468518A138A1940207AE37903406E
S21400B5D058B2002806DBDB0703D5CB070AD40123C5
S21400B5E0237210BD8B0702D480232372F9E7D36839
S21400B5F09847F9E793689847F1E7C046CC050020DE
S21400B600F0B5D6464F464646C0B58AB006000F008F
S21400B610140031600800A04B9847A04A116A851CA8
S21400B6200123AB400B43136209A9237B0B70143034
S21400B630C5B228009A4B984728009A4B9847207B1B
S21400B6400021994B98473B681C209B0705D50AB0FC
S21400B6501CBC90469946A246F0BD3B681738DB07EF
S21400B660F5D430688C4B9946984705008F49904B27
S21400B6709847AD008F4BEE50002333767376002547
S21400B6807383B3832522B554336214333B60336827
S21400B69098461800C8478146802308AA137055703C
S21400B6A001239370D570E069276A002800D1AFE0C7
S21400B6B008AB1870022308AA5370000CC0B2110021
S21400B6C07D4B9847002F00D1A7E008AB1F700223E0
S21400B6D008AA53703F0CF8B21100774B9847A38A1C
S21400B6E0F380E38A3381237E8022002B04D1734BC0
S21400B6F09B789B07DB0FDA01A16823690B43134392
S21400B7002422A25C002A02D08022D2051343A26A19
S21400B71013432C22A25C002A03D180229204914279
S21400B72002D18022120513432D22A25C002A02D0E9
S21400B7308022120413432E22A25C002A02D080220A
S21400B740D2031343424612681343424613608023D3
S21400B7505B00536048461430C0B2594B9847079078
S21400B760FA239B0022685A43914663689A46554DD1
S21400B770A847009001914B465800A84702900391B5
S21400B780208EA847049005914F4F504A504B009882
S21400B7900199B84702000B0004980599B8474D4E2A
S21400B7A000224D4BB047049005914846A84702003A
S21400B7B00B0004980599B84702000B00474D009807
S21400B7C00199A847029A039BB0470022444BA8471A
S21400B7D0029A039B434DA847434B98470500802396
S21400B7E09B04A2689A421ED003004020FF2D00D979
S21400B7F02DE700240020FF251D40240625430004D5
S21400B800FF231B04184005434346DD6000201EE767
S21400B81000214046354B98474AE701214046334BC6
S21400B8209847070051E7FA26B60053465E4300984D
S21400B830019902000B00274CA047009001913000B0
S21400B840204B984700222A4BB84702000B0000986E
S21400B8500199244CA0470022214B204CA047224BA4
S21400B8609847041E0CD031000798224B98470238A0
S21400B870001B2B00FF2D0CD8FF28BCD94020E6E685
S21400B8807100481E079B9C4660441A4B9847013837
S21400B890EFE74020DBE6C04681E7000000040040FA
S21400B8A099FC00000DFC0000BDE50000BDBB0000DB
S21400B8B0BDE70000DC05002091FD000000200041EF
S21400B8C0B5FC0000A13A01000D2F010095D626E830
S21400B8D00B2E113E85220100000024400D3401008D
S21400B8E00000F03FA5280100393A010009E60000F3
S21400B8F000000840451F010003681A7E920707D51E
S21400B90002221A765B8B9B074120DB171840704794
S21400B9105A8B520706D55968C02292020A435A60CB
S21400B9201820F4E70020F2E730B50268002301246F
S21400B9300225117E21420BD1117E294206D1013308
S21400B9409BB201899942F4D8122002E0002000E060
S21400B950002030BD10B5046862688023DB02134304
S21400B96063606162024B98470123237610BDC04690
S21400B97029B9000001680722CB691A42FCD170473A
S21400B98070B5040006683268458B838BED1AADB23D
S21400B990838B013B9BB2838313011DD5C37A002B97
S21400B9A003D0838B9BB2012B10D0A38B9BB2002BB2
S21400B9B002D1A37A002B1CD12000124B9847236A91
S21400B9C05D192823F35CDBB22B7070BD7268802390
S21400B9D0DB0213437360E8E7C37A002BE5D0838B62
S21400B9E09BB2002BE1D172688023DB0213437360A5
S21400B9F0DBE72000034B98477268C0239B02134383
S21400BA007360D9E775B9000070B5040005686B8BE4
S21400BA105B0703D51E222523C25470BD468B838B3D
S21400BA20F61AB6B2838B013B9BB28383044B9847CE
S21400BA30236A9E193378DBB22822AB54EDE7C04662
S21400BA4075B9000070B505000C0006684B7A002B2F
S21400BA501AD17368134A1340736063682B62638855
S21400BA60AB8300222423EA5405320133EA54223BF6
S21400BA70B375237A002B0BD123885B00627A92037E
S21400BA8013437362002070BD897A074B9847E0E73E
S21400BA9023885B00627A92031343802212021343C8
S21400BAA07362EFE7FFFFFBFF55B90000F8B505002E
S21400BAB00C0006684B6803624B88838301222423AC
S21400BAC0C25404320133C25437683F01FF0F4B7A29
S21400BAD0002B17D1002F02D06388012B16D0736875
S21400BAE0204A13407360237A002B15D10323B375C5
S21400BAF023885B00627A9203134301221343736226
S21400BB000020F8BD897A184B9847E3E772688023CF
S21400BB10DB0213437360E6E723885B00627A9203D6
S21400BB201343802212021343736228000F4B984778
S21400BB3073680C4A134073600028E2D128000C4B4F
S21400BB4098470028DDD10323B37523881B0A782283
S21400BB5013435B00627A920301210A431343736224
S21400BB60CFE7C046FFFFFBFF55B9000029B900002C
S21400BB70F9B8000010B5838B9BB20522002B01D0CC
S21400BB80100010BD01338372C372024B9847020047
S21400BB90F6E7C046ADBA000010B5838B9BB205220F
S21400BBA0002B01D0100010BD01338372C372024B0C
S21400BBB098470200F6E7C04645BA000070B5800018
S21400BBC0754BC45825682B681B01DA0F637E267EEA
S21400BBD01E40638B9BB2002B03D1A38B9BB2002B22
S21400BBE023D1638B9BB2002B08D0A38B9BB2002B78
S21400BBF004D12533E35C052B00D16DE0638B9BB24B
S21400BC00002B24D0A38B9BB2002B20D06B8B9B06E3
S21400BC1000D581E0002A04D0A38B9BB2012B00D173
S21400BC207AE041222523E25411E02B7EDB0707D57C
S21400BC3001232B766B8B9B072ED541222523E254BE
S21400BC40A38B9BB263832523E35C052B38D0638BE1
S21400BC509BB2002B07D0A38B9BB2002B03D12533BE
S21400BC60E35C052B64D02523E35C052B13D025234A
S21400BC70E35C002B0FD003232B7500236383A38381
S21400BC802533E35C412B03D0A37A002B00D075E06C
S21400BC90730700D57BE070BD6B8B5B07D0D5182291
S21400BCA02523E2540023A383A37A002BC8D02000C8
S21400BCB03A4B98476A68C0239B0213436B60BFE702
S21400BCC01F33E35C002B03D02000354B9847BEE7BC
S21400BCD02000344B9847BAE71F33E35C002B00D0B4
S21400BCE08CE703332B750023638325330022E2544D
S21400BCF0A37A002B07D101232B76F307A7D5E36899
S21400BD0020009847A3E72000244B98476A68C02382
S21400BD109B0213436B60F0E72423E35C002B03D104
S21400BD202000204B984792E720001D4B98478EE74F
S21400BD301F33E35C012B96D12B7E9B0701D5022394
S21400BD402B7603232B750023638325330022E254CE
S21400BD50B30703D52423E35C012B0BD0F30700D4F1
S21400BD6081E72423E35C002B00D07CE7E368200017
S21400BD70984778E723692000984774E72000074B28
S21400BD8098476A68E023DB0213436B6080E76369C9
S21400BD90200098477FE7C046DC05002075B9000004
S21400BDA081B9000009BA0000094B98420CD0094B33
S21400BDB0984207D0084A0023904201D018007047E6
S21400BDC0023302E0012300E00023DBB2F6E7C046C0
S21400BDD000200042002400420028004210B5040063
S21400BDE008004F4B98470023236080004D4A825836
S21400BDF06260A372E372237363722372E361236249
S21400BE006362A36223756375A375E3752376637611
S21400BE1023746374A374E3742C22A3540132A354D2
S21400BE200132A3540132A3540132A3540132A35465
S21400BE300132A3540132A3540132A3540132A35455
S21400BE400132A3540132A3540132A3540132A35445
S21400BE500132A3540132A3540132A3540132A35435
S21400BE600132A3540132A3540132A3540132A35425
S21400BE700132A3540132A3540132A3540132A35415
S21400BE800132A3540132A3540132A3540132A35405
S21400BE900132A3540132A3540132A3540132A354F5
S21400BEA00132A3540132A3540132A3540132A354E5
S21400BEB00132A3540132A3540132A3540132A354D5
S21400BEC00132A3540132A3544132A354A365A3679D
S21400BED00132A354E365E3670132A35423661A3A9A
S21400BEE0A3501B32A3546366173AA3501832A354C8
S21400BEF0A366143AA3501532A354E366113AA3502E
S21400BF001232A35423670E3AA3500F32A35463672A
S21400BF100B3AA35001210C32A1540132A35410BD98
S21400BF20A9BD0000DC600100F0B5DE4657464E466F
S21400BF304546E0B591B001900C0015000800C34BD3
S21400BF40984703000100C248026A9E00C14FF75995
S21400BF503A43026222681C20920706D511B03CBC08
S21400BF6090469946A246AB46F0BD22680127174088
S21400BF70F4D1B948325817202E68B242EED36E6814
S21400BF80B242EBD3E869824200D2B9E1286A824223
S21400BF9000D2B7E1686A824200D2B5E1A86A82425E
S21400BFA000D2B3E198229446AC4462460892002040
S21400BFB003E001300132082808D01678002EF8D0A9
S21400BFC0A64E765C8642F4DC1720C7E70022029273
S21400BFD080204004844602E00132042A0ED0A818CD
S21400BFE0007C0128F8D19E48405C904200DA8FE140
S21400BFF060469040029E06430296EDE79D32AA5C9C
S21400C000002A04D0802212010299114302912A7A52
S21400C010511E8A41920006926A7A012A22D0904ADC
S21400C020D25C110005923522AA5C8A4200D379E1DF
S21400C0302C21695C0F2900D974E1287B0A90E87AE4
S21400C0400B902D208246AA44002004970EAE079639
S21400C050C0263601B1468446A046280055460993B8
S21400C060824635E0069911430691D8E792024F467C
S21400C0703A400A4319798B4603215F4639400A4302
S21400C08016435A79520160210A40324399790902CF
S21400C090C026B6000E401643DA791203E021C90125
S21400C0A00A4016433443039A1443204362460799D2
S21400C0B05050042A2AD09A7C0599914200D831E142
S21400C0C0597A0A3504239B46DC440F2900D929E116
S21400C0D00906F0231B0519402B002E783604FF2096
S21400C0E00004064068788024002800D1049C9878D4
S21400C0F008270397002801D104980390D878834630
S21400C10010205F46002FB1D10498AFE7444655464D
S21400C110099B524AD25C91465146503150464130B6
S21400C120002700220126B2460226FF36B3468026A6
S21400C1307602B046A4461C004B460FE00678002E5A
S21400C14007D0934200D8E7E0022E14D05646964019
S21400C1503743013201310230082A10D00E78002E03
S21400C160ECD0934200D8D5E0464696403743067852
S21400C170002EE9D1EDE75E4696403743E9E799465B
S21400C180230064466A7E120130211140287E072271
S21400C190024011430022802040020E0002E00132DD
S21400C1A0042A0BD0A918097D0029F8D005999142D8
S21400C1B000DCB3E0010091400E43F0E7B246019880
S21400C1C0020004323430002102C28242FCD1002236
S21400C1D00198426382639900224A88500460A02234
S21400C1E0A95C643A81540DA9AA7A0A701E4AD65CE4
S21400C1F030001E4B984730001D4B98474B46002B8F
S21400C2003CDD2E00583698339846A84401239946BC
S21400C210AB464546A046089C03E001340436AC42D3
S21400C2202AD02378002BF8D00CAB4A469A7000230D
S21400C2300CAAD37013002022B21812781A704A463D
S21400C2405A70307819000B4B9847E6E7A9BD0000F6
S21400C25000040040C8600100DC600100E8600100E6
S21400C260D4600100D0050020D860010099FC0000D1
S21400C2700DFC000091FD000044465D460A9B1B0332
S21400C2800B9A12021343029A134323600422A368F4
S21400C2901A42FCD1FF2323710422A3681A42FCD160
S21400C2A06B461B7E63710E9BE3600F9B2361A76149
S21400C2B01D4AA3681342FCD15346E3631022A368C9
S21400C2C01A42FCD12B686363184AA3681342FCD158
S21400C2D06B6823640598002822DD1C350021144E67
S21400C2E032008A40A3681A42FCD104CD0B001033FA
S21400C2F09B00E3185A6001318842F1DC00202DE6ED
S21400C30017202BE6172029E6172027E6172025E614
S21400C310172023E6172021E617201FE617201DE624
S21400C32000201BE6172019E64000020080000400EB
S21400C33000010800920083185960034BD358426BE3
S21400C3401343436300207047EC60010070B504009F
S21400C3500D000068094B9847094B1B5C1F221A40CA
S21400C36001239340074A1360AD00074BEA58A36BBE
S21400C3701343A36323689A6270BDC046A9BD00003C
S21400C3801C61010000E100E0EC600100F0B5C6466B
S21400C39000B580000E4BC7583B68DE6ABB6B7A6BF5
S21400C3A013401E4000240B4B984602E00434302C09
S21400C3B00AD04346E5583542F8D03B195B6838004A
S21400C3C098473B68DD62F1E704BC9046F0BDC04686
S21400C3D0D0050020EC60010010B50020014B984706
S21400C3E010BDC0468DC3000010B50120014B984714
S21400C3F010BDC0468DC3000010B50220014B984703
S21400C40010BDC0468DC30000F8B504004120235C73
S21400C41001252B43235492B2002020560023124DB0
S21400C420A847002816DB4123E35CDB0718D5E36E3C
S21400C4300020022B17D90D4F0D4E41250020B8477E
S21400C440606DB047635DDB070CD5E36E022BF5D855
S21400C450002008E04122A35C01218B43A35402E0A4
S21400C460002000E00020F8BDBDAF00001D920000D7
S21400C470C5D500005023038000238370054A02813F
S21400C4804360C3600133FF330361AE3B4361024B3D
S21400C49083617047204E0000E862010070B504001A
S21400C4A00D00002838D0002939D00B69002B39D070
S21400C4B04B68002B39D04B69512B39D9E822002123
S21400C4C01E4B9847200050301C2229001C4B9847D2
S21400C4D0E36D002B08D02B89002B11D10023E366D7
S21400C4E0D822A350002070BD2869164B9847E065F7
S21400C4F0002820D04122A35C04210B43A354EAE782
S21400C5006868002322001049104DA847A064002840
S21400C510E4DA1C204042E6E716204042E3E7162015
S21400C5204042E0E716204042DDE716204042DAE7C8
S21400C53016204042D7E70C204042D4E7FF3B0100DC
S21400C540C93B0100A13B010061C6000041D50000C7
S21400C550002802D0C1640020704716204042FBE746
S21400C560F0B585B004000E00C023C358002B02D0DF
S21400C570C422805898472000B03018220021174B5C
S21400C5809847E36E002B24D10023E3569B0000253A
S21400C590134A9D5020006C306C2200210F4FB84784
S21400C5A02000D83010220021B847E566D823E55091
S21400C5B04122A35C01218B4301318B43A354019696
S21400C5C0E36C002B03D001AA02312000984705B087
S21400C5D0F0BD00202056034B9847D5E7FF3B0100EF
S21400C5E028020020E9B00000F0B587B00090019165
S21400C5F0174C26001C36174F15E0022302AA13809C
S21400C6004E33EB5A1A021B0A134302AA5380019BAD
S21400C610039300202856102202A90F4B984715E0D6
S21400C6200434B44212D02568002DF9D0691C009855
S21400C630B8470028F4D1EB6E012BF1D1019B002BFB
S21400C640DBD1762149422800044B984707B0F0BD5D
S21400C65028020020654001002DAF000061C50000E3
S21400C66010B5002A04D03E2149421000014B9847DD
S21400C67010BDC04661C50000F0B5DE46574680B521
S21400C68095B002AF0400EB461022B24910230820F2
S21400C6903818C018B04B9847626ED31DDB08DB0015
S21400C6A06946CB1A9D4602AE002C00D1F1E141232B
S21400C6B0E35CDB0700D5ECE1E36E032B04D0042B30
S21400C6C000D120E1DD46E5E10023CC2163500431B2
S21400C6D063500094A14B31002C200825AC46BC4486
S21400C6E060449F4DA847C823E35C012B00D1A9E016
S21400C6F0022B00D1AFE0032B00D1B5E0042B00D114
S21400C700BBE0052B00D1C1E0062B00D1C7E0250019
S21400C71070352800934B9A469847020029002C2330
S21400C72008203818C018904DA8470B228F492C2394
S21400C73008203818C018A8470C228D492C2308203A
S21400C7403818C018A847A36E7B601800D0470200B0
S21400C75079682C2308203818C018A8470222854973
S21400C7602C2308203818C018A847062282492C23F4
S21400C77008203818C018A847631C7B601800D047EC
S21400C780020079682C2308203818C018A84702220F
S21400C79078492C2308203818C018A847182277494B
S21400C7A02C2308203818C018A847132274492C23B5
S21400C7B008203818C018A847172272492C230820CA
S21400C7C03818C018A8472300B033DB68002B7BD08E
S21400C7D0B023E35C002B6BD12300B0339B68002BA7
S21400C7E072D02200B03250699847CC23E05000281F
S21400C7F000DAACE002006449202308203818C0188C
S21400C800624B9847102262492C2308203818C0181B
S21400C810554DA84720230822BA18D018514B9847E0
S21400C8200200202308217918C9180C33082038186C
S21400C830C018A84702224F492C2308203818C018D1
S21400C840A84741E0042253492B3308203818C01863
S21400C850454B98475BE705224F492A33082038188E
S21400C860C018414B984752E707224C492933082005
S21400C8703818C0183C4B984749E7042248492833E3
S21400C88008203818C018384B984740E70822454912
S21400C890273308203818C018334B984737E7052247
S21400C8A04149263308203818C0182F4B98472EE7E2
S21400C8B001225242CC23E2501D323C49A03B0820C4
S21400C8C03818C018284B9847D423E558002D0AD0AE
S21400C8D02800244B9847020029002C2308203818EB
S21400C8E0C018214B9847022222492C2308203818CA
S21400C8F0C0181D4B98472C230822BA18D0182C4B6A
S21400C90098470423E366CC23E258002A52DB00DC77
S21400C910F1E02300B033DD68002D00D1EBE0D0233A
S21400C920E3589A4200DDBBE0C023E358002B02D058
S21400C930C422A05898470223E366E36C002B00D17C
S21400C940C0E60C22BA18012120009847BAE6002259
S21400C950E250B9E7D0610100C93B010009C40000FC
S21400C960D5D30000C340010041D40000446201005A
S21400C97050620100286801006062010068620100E0
S21400C9808462010098620100D0620100214001002B
S21400C990D4620100106201001862010020620100EA
S21400C9A028620100306201003C620100B0620100B2
S21400C9B0E5D300002300B033DD68002D00D19AE0F7
S21400C9C0D023E358626E073A711D2000B0304069EC
S21400C9D0A8470500C343DB171D400A2232710D210C
S21400C9E0F170731959719A710F232B40063205396D
S21400C9F08C46BC446244D35CB370B11C0F2D0DDD75
S21400CA00711CEB170F2213405B191B1113400132E8
S21400CA1008208446BC446244D35C7370FF2D0DDD51
S21400CA20EA17FF2313405B191B051B0F1022082172
S21400CA308C46BC446244D35C33703100CA1C921BE3
S21400CA402B1DD21892B2002020560023304EB0473D
S21400CA50002819DBD022A3585B19A350002D00D064
S21400CA6030E6C023E358002B02D00C3AA058984773
S21400CA700223E366E36C002B00D123E60C22BA18EF
S21400CA800121200098471DE6052149422000214B40
S21400CA909847DD46BD4613B00CBC92469B46F0BD9B
S21400CAA02200B0325069626E3100A847002816DBBB
S21400CAB0CC23E5580433E358ED1A854200DD050023
S21400CAC0AAB20020205600233100114EB04700289D
S21400CAD00BDBD023E25894466544E550F2E5052189
S21400CAE0494220000B4B9847ECE5052149422000BF
S21400CAF0084B9847CDE70223E366E36C002B00D192
S21400CB00E0E50C22BA18012120009847DAE5C04675
S21400CB10BDAF000061C50000F0B5D64600B588B0D0
S21400CB2004000F0092460393002800D1D3E0C36EA2
S21400CB30022B00D9D3E0072281493800814B984761
S21400CB400726002807D008227F4938007D4B9847E3
S21400CB5046424641F600631CBD19029318007B4B03
S21400CB609847020029000298764B984701902B7848
S21400CB70002B52D02F2B52D0711C79180022013274
S21400CB80A3540D000B78002B02D001312F2BF6D1C9
S21400CB90A218002353706378002B00D1A3E028006E
S21400CBA06A4B98473F2800D9A1E0D423E0580028D4
S21400CBB001D0674B98470E9B002B32D01800654B70
S21400CBC09847D423E050002800D194E04122A35C8B
S21400CBD001218B43A354002363642B782F2B24D08E
S21400CBE02F227023E2542B78002B24D1039B002B9A
S21400CBF027D02000B03018221900574B9847C8237A
S21400CC005246E254E36E012B22D0002B27D0022B93
S21400CC103AD00B235B4201938DE00022B8E7002256
S21400CC20B6E70022D423E250D0E720007030290077
S21400CC304A4B9847DAE7290020007130474B98475F
S21400CC40D4E72000B03018220021454B9847D6E79D
S21400CC50019B002B6FD000212000424B98475223A7
S21400CC60E25C531E9A41D2B2012102203E4B984705
S21400CC702070002843DB80003C4BC450029D0021FE
S21400CC802026012030270CE0019B002BE3D1033344
S21400CC90E3662000364B98474DE0002901D012E0AD
S21400CCA001002A78002A2ED001351300B343413BF9
S21400CCB0052BF5D93A2A0AD02F2A0AD02E2AECD0EC
S21400CCC03A40302AEDD002982A4B98472FE00100D0
S21400CCD0E7E70100E5E716235B4201932BE010230C
S21400CCE05B42019327E016235B42019323E05B231C
S21400CCF05B4201931FE00C235B4201931BE01C2365
S21400CD005B42019317E0022304AA13804E33E35AD2
S21400CD101A021B0A134304AA53800298164B98471C
S21400CD20059000202056102204A9144B9847012392
S21400CD30E36600230193019808B004BC9246F0BD58
S21400CD40F4620100D1400100FC620100C340010012
S21400CD50B53B010089400100C93B01007940010054
S21400CD60FF3B010061C50000A9AD000028020020BD
S21400CD7079C60000F1B1000085B100002DAF0000BB
S21400CD8010B500280DD0416C026E91420AD2521A9C
S21400CD9092B2C36D9C466144007840B20023044CB6
S21400CDA0A04710BD8B214942024B9847F9E7C04681
S21400CDB055B0000061C5000070B50500C06D6B6C15
S21400CDC05C1A0419002C02DC00236B6470BD220080
S21400CDD0014B98476C64F9E7DB3B0100F0B5CE46A3
S21400CDE000B584B00700C46D624B994649E0210047
S21400CDF03800614B98470026300004B004BC9146CA
S21400CE00F0BDA11C38005C4B9847FB6C002B0AD089
S21400CE10E422B95A002906D0083AB858002807DB99
S21400CE203A6E904210DC0122D823FA500126E3E73E
S21400CE3001AA1180012191700021E02039509160F3
S21400CE40023138009847EEE701AA118050600021B1
S21400CE509160E0203950023138009847E3E720001F
S21400CE601030464B9847DC23F85009E001329542D3
S21400CE7006D01378202B2BD1F8E7213A8933FA50C5
S21400CE80AC1C3F492000C847051EB0D0FB6D7A6C2D
S21400CE90944663449842AAD2022239492000394B6C
S21400CEA098470028ADD0102237492000354B9847C8
S21400CEB00028D4D0132235492000324B9847061E4E
S21400CEC010D1220013329542DAD9E37C202BCDD044
S21400CED020229343432BD0D08621494238002C4B46
S21400CEE0984789E70C222B492000264B98470028B4
S21400CEF01DD122000C329542C2D9237B202B09D0AB
S21400CF00202293434B2B0CD04122BB5C02218B4347
S21400CF10BB54B5E701329542B2D01378202BEFD13F
S21400CF20F8E72132BB5C02210B43BB54A8E705227D
S21400CF3019492000134B98470028A1D1200009303A
S21400CF400E4B9847E423F8520022083BFA506379C8
S21400CF50312B02D8E379302B05D94122BB5C022164
S21400CF600B43BB548CE74122BB5C02218B43BB5472
S21400CF7086E7C046F3400100B9CD00004D3B0100F6
S21400CF8028680100D1400100D4620100E46101007C
S21400CF9061C50000F861010008620100F0B5CE46E8
S21400CFA000B586B00400C56DDC23C358002B69DBD2
S21400CFB0026E93422BDC0020626C93424EDCE66CE1
S21400CFC0002E03D0E422A15A00290ED10023D82235
S21400CFD0A3500C32A3524133E35C9B070FD40021CD
S21400CFE02000714B9847002038E003AA11800021EA
S21400CFF091705360956002312000B047E6E7DC236D
S21400D000E15869182000694B9847606C26E0426C2E
S21400D01003920495E021405884466244625093424D
S21400D02020DC0023D822A3500C32A352E33A03ABF1
S21400D0301A72E36C002B07D003AE320003212000E7
S21400D0409847337A012B03D14123E35C9B0710D525
S21400D050636CE9182000554B9847002006B004BCC6
S21400D0609146F0BD002203AB1A72E36C002BEFD0A2
S21400D070E2E74F484F4B9847002120004A4B98471D
S21400D0800020EBE7476C00239946E0260AE04123A0
S21400D090E35C9B071BD5A91C2000444B9847636C98
S21400D0A0002B73D0A359002B30DB16D1D822A35007
S21400D0B00C32A352E33A69460A7200930193E36C7A
S21400D0C0002BE4D06A46032120009847DFE70021C2
S21400D0D02000354B98470020C0E7BB42DFDC0093BA
S21400D0E0019500236A461372E36C002B02D00321DD
S21400D0F020009847A359991C691820002B4B984785
S21400D100676CE56D01235B42A351C8E70023A3517A
S21400D110002F04DD2B780A2B1CD10135013FA359C3
S21400D120226E934239DC002FB9D101225242E0230D
S21400D130E250D0E71A00613A052A18D8A25912011F
S21400D140D318613BA3510135013F002F20D02B7827
S21400D1500A2BE2D04A46002AF5D11A00303A092AAC
S21400D160E8D8A2591201D318303BA351EBE71A00B6
S21400D170413A052A05D8A2591201D318413BA351BA
S21400D180E1E73B3B5A425A419146DCE7002065E71F
S21400D190E023E358226E9342C7DD8B2149422000EC
S21400D1A0014B984797E7C04661C50000B9CD00001F
S21400D1B0E06101007D3E010010B5D823C358002B66
S21400D1C003D0012B04D0002001E0034B984710BD8C
S21400D1D0024B9847FBE7C046DDCD00009DCF000020
S21400D1E070B50400436C9C46614441645823C35A9E
S21400D1F0002B05D1054D2000A8470028FBD170BDA7
S21400D200816C406D024B9847F4E7C046B9D10000E8
S21400D210B5D5000010B584B08000654BC458002C0E
S21400D22006D0062951D0072900D18AE0052901D069
S21400D23004B010BD0123D3561A1E019315DBE36C10
S21400D240002B03D001AA0021200098470323E366A1
S21400D2505533E25AA16C606D564B98472000564BEA
S21400D26098472000554B9847E2E70E33D9B20E296F
S21400D2701ED88B005249CB589F46022149421DE0DA
S21400D280702149421AE00C21494217E01621494212
S21400D29014E00C21494211E0792149420EE0682150
S21400D2A049420BE00B21494208E01021494205E0C3
S21400D2B0002A07DB002101E0052149422000414BFE
S21400D2C09847B5E705214942F8E70423D15E0029CF
S21400D2D006DD20003C4B98472000374B9847A7E7D1
S21400D2E00B000E339AB20E2A1ED89300374AD35834
S21400D2F09F46022149421DE0702149421AE00C2156
S21400D300494217E01621494214E00C21494211E037
S21400D310792149420EE0682149420BE00B2149423F
S21400D32008E01021494205E0002907DB002101E062
S21400D330052149422000234B9847CDE70521494265
S21400D340F8E70023D35E002B08DB20001B4B984732
S21400D3504122A35C01218B43A35469E70E339AB2A2
S21400D3600D2A1ED893001A4AD3589F4602214942D6
S21400D37019E07021494216E00C21494213E01621BB
S21400D380494210E00C2149420DE0792149420AE069
S21400D3906821494207E00B21494204E01021494236
S21400D3A001E0052149422000064B9847D0E7C046D9
S21400D3B02802002089D5000081CD000079C6000033
S21400D3C02061010061C50000E1D100005C61010040
S21400D3D09861010002600161002242608360009B48
S21400D3E0C360704710B504004268002A00D110BD23
S21400D3F00169C068A368984700236360F7E70000E8
S21400D40070B504000D00036842689B1A002B05DD0A
S21400D41022696368591C6160D55470BD014B9847FA
S21400D420F6E7C046E5D3000070B506000C0009120A
S21400D430024DA84761B23000A84770BD01D4000075
S21400D440F8B506000C00002A08D08D18044F0021FD
S21400D45061563000B8470134A542F8D1F8BDC04641
S21400D46001D40000024A1368013313607047C046B7
S21400D47044020020642343800023037043707047F7
S21400D480F0B5C64600B5ACB00D006E461D4B6A46FC
S21400D49092CB92C26B884365143004002B789B00B5
S21400D4A0995917001000184B98470020174B9847BB
S21400D4B0174B1B7ADBB2D84080466988FA200002F8
S21400D4C0144B984701004046134B98477860052355
S21400D4D0FB722B789B0099593A0020000F4B984717
S21400D4E06A780832D2B20E4920000E4B9847697807
S21400D4F00831C9B220000C4B98472CB004BC9046AB
S21400D500F0BDC04608630100DDBD000081FB0000E1
S21400D5100004004059200100451F010029BF0000FB
S21400D52065D4000035C300004DC3000042690221E7
S21400D53093681942FCD1136802210B4313607047AD
S21400D54070B504000578E80702D50120404270BD9A
S21400D55061602900022081432170A260616D18007D
S21400D560044B9847E0602378012213432370002081
S21400D570EDE7C046451F01008B00591889000B5C7B
S21400D580012293430B54704770B58B005D18AD00B5
S21400D590295C0226314329544419416D1000034B7F
S21400D5A09847034B1B68C018206170BD451F0100DB
S21400D5B0440200208B00591889000B5C022293431A
S21400D5C00B54704770B504000378DB0707D5037863
S21400D5D09B0704D5104B1A6803699B1A00D470BDCC
S21400D5E003785B07FBD4037804210B430370C368FE
S21400D5F0002B0BD0D2180261A268002120006568BB
S21400D600A8472378042293432370E8E70278022190
S21400D6108A430270F0E7C046440200200C4B1B68A9
S21400D620002B06D1EFF31083002B07D00022094B06
S21400D6301A70074A136801331360704772B6BFF357
S21400D6405F8F0022044B1A700132024B1A70F0E70B
S21400D650480200204C02002002000020084B1A68F6
S21400D660013A1A601B68002B09D1064B1B78002B69
S21400D67005D00122044B1A70BFF35F8F62B6704765
S21400D680480200204C02002002000020FEE70000B6
S21400D690F8B52A4A2A4B9A4211D01A00294B9A42C8
S21400D6A00DD2294A03339B1A9B0801339B000022A4
S21400D6B0234822498C58845004329A42FAD1234A8D
S21400D6C0234B9A420AD2D34321495B1803218B434A
S21400D6D004339B18002102C29342FCD11D4AFF214D
S21400D6E01D4B8B439360FD3990235B001B4AD15042
S21400D6F01B4AD3780325AB4302242343D370D37845
S21400D7000C27BB4308263343D370164B987B302236
S21400D7109043202210439873997BB9433143997301
S21400D7209A7BAA4322439A730F4A536880210B437D
S21400D73053600E4B98470E4B9847FEE7246F010048
S21400D74000000020F401002004000020F401002066
S21400D7506810002000ED00E000800000007000412E
S21400D760005000410048004100400041593B010084
S21400D770D90801000300064A1268002A04D0044AA9
S21400D7801068C318136070470249014A1160F6E733
S21400D790500200206830002001204042704780235D
S21400D7A09B014B60002070470120704700207047A7
S21400D7B07047000030B585B0040000230393056869
S21400D7C02F4B98472B79002B56D101332B712D4BBD
S21400D7D098479F2201AB1A706279D109002300296D
S21400D7E004D15309DB0128498C4663441F211140AC
S21400D7F001228A405A61012201A92068234B9847DA
S21400D8000023032203A92068214DA8476279D10985
S21400D8100023002904D15309DB011B498C466344CD
S21400D8201F21114001228A409A6100232268137149
S21400D8302379092B15D89B00164AD3589F46164BBA
S21400D84012E0164B10E0164B0EE0164B0CE0164B93
S21400D8500AE0164B08E0164B06E0164B04E0164BA3
S21400D86002E0002300E0154B039A9A4202D01420EF
S21400D87005B030BD0020FBE7024B98470520F7E7D0
S21400D8801DD600005DD6000000440041ADEC00004F
S21400D8909DEA0000146301001F4300001F440100BE
S21400D8A01F4502001F4501001F4602001F460300D9
S21400D8B01F8600001F4701001F4800001F6500006C
